:02000000CE2808
:0E000600DF30831203138C051A08F000080087
:0A0014000630831203138800080071
:10001E0020308316031398009030831298000C3012
:10002E0083169900EF3083128C05DF308C050800A3
:0E003E008312031324088A002308820008009E
:10004C0083120313F101F20128087202031D3028F8
:10005C002708710203184428F301F40100307402DC
:10006C00031D3A289B30730203184028F30A031926
:0E007C00F40A3428F10A0319F20A2A280800AF
:08008A00831203138801080032
:0A00920005308312031388000800F4
:0A009C0009308312031388000800E6
:0E00A6008312031327089900EF308C05080021
:1000B40007308312031392000C3097000C309D001C
:1000C400FA308316920087018312200895002008D5
:0400D4009B00080085
:1000D80083120313A501A6010F2003207008A200B4
:1000E8007008A70053202208733A031D7C28452076
:1000F800061C8528861C8528A50A0319A60A4920F6
:100108009A28861C8E280A20F430A7000130A800FF
:1001180026209A28061C97284E20F430A700013084
:10012800A80026209A28A501A60149200030260605
:10013800031DA02800302506031DA7284B30A0006A
:100148000030A100BD2800302606031DAD2801306F
:100158002506031DB4283230A0000030A100BD28B8
:1001680000302606031DBA2802302506031DBD28C7
:0C01780045202008950020089B0008008E
:100184001F208A110A128000840AA30A0319A40AF0
:08019400F003031DC22808005E
:10019C00643083120313A000A1018316880183121B
:1001AC008801F03083168700033086005A206C20BB
:0401BC00DD28DF2833
:02400E004A2F37
:00000001FF
